{
    "contractName": "QToken",
    "abi": [
        {
            "constant": true,
            "inputs": [],
            "name": "name",
            "outputs": [
                {
                    "internalType": "string",
                    "name": "",
                    "type": "string"
                }
            ],
            "payable": false,
            "stateMutability": "view",
            "type": "function"
        },
        {
            "constant": false,
            "inputs": [
                {
                    "internalType": "address",
                    "name": "spender",
                    "type": "address"
                },
                {
                    "internalType": "uint256",
                    "name": "value",
                    "type": "uint256"
                }
            ],
            "name": "approve",
            "outputs": [
                {
                    "internalType": "bool",
                    "name": "",
                    "type": "bool"
                }
            ],
            "payable": false,
            "stateMutability": "nonpayable",
            "type": "function"
        },
        {
            "constant": true,
            "inputs": [],
            "name": "quasarContract",
            "outputs": [
                {
                    "internalType": "address",
                    "name": "",
                    "type": "address"
                }
            ],
            "payable": false,
            "stateMutability": "view",
            "type": "function"
        },
        {
            "constant": true,
            "inputs": [],
            "name": "totalSupply",
            "outputs": [
                {
                    "internalType": "uint256",
                    "name": "",
                    "type": "uint256"
                }
            ],
            "payable": false,
            "stateMutability": "view",
            "type": "function"
        },
        {
            "constant": false,
            "inputs": [
                {
                    "internalType": "address",
                    "name": "sender",
                    "type": "address"
                },
                {
                    "internalType": "address",
                    "name": "recipient",
                    "type": "address"
                },
                {
                    "internalType": "uint256",
                    "name": "amount",
                    "type": "uint256"
                }
            ],
            "name": "transferFrom",
            "outputs": [
                {
                    "internalType": "bool",
                    "name": "",
                    "type": "bool"
                }
            ],
            "payable": false,
            "stateMutability": "nonpayable",
            "type": "function"
        },
        {
            "constant": true,
            "inputs": [],
            "name": "decimals",
            "outputs": [
                {
                    "internalType": "uint8",
                    "name": "",
                    "type": "uint8"
                }
            ],
            "payable": false,
            "stateMutability": "view",
            "type": "function"
        },
        {
            "constant": false,
            "inputs": [
                {
                    "internalType": "address",
                    "name": "spender",
                    "type": "address"
                },
                {
                    "internalType": "uint256",
                    "name": "addedValue",
                    "type": "uint256"
                }
            ],
            "name": "increaseAllowance",
            "outputs": [
                {
                    "internalType": "bool",
                    "name": "",
                    "type": "bool"
                }
            ],
            "payable": false,
            "stateMutability": "nonpayable",
            "type": "function"
        },
        {
            "constant": true,
            "inputs": [
                {
                    "internalType": "address",
                    "name": "account",
                    "type": "address"
                }
            ],
            "name": "balanceOf",
            "outputs": [
                {
                    "internalType": "uint256",
                    "name": "",
                    "type": "uint256"
                }
            ],
            "payable": false,
            "stateMutability": "view",
            "type": "function"
        },
        {
            "constant": true,
            "inputs": [],
            "name": "symbol",
            "outputs": [
                {
                    "internalType": "string",
                    "name": "",
                    "type": "string"
                }
            ],
            "payable": false,
            "stateMutability": "view",
            "type": "function"
        },
        {
            "constant": false,
            "inputs": [
                {
                    "internalType": "address",
                    "name": "spender",
                    "type": "address"
                },
                {
                    "internalType": "uint256",
                    "name": "subtractedValue",
                    "type": "uint256"
                }
            ],
            "name": "decreaseAllowance",
            "outputs": [
                {
                    "internalType": "bool",
                    "name": "",
                    "type": "bool"
                }
            ],
            "payable": false,
            "stateMutability": "nonpayable",
            "type": "function"
        },
        {
            "constant": false,
            "inputs": [
                {
                    "internalType": "address",
                    "name": "recipient",
                    "type": "address"
                },
                {
                    "internalType": "uint256",
                    "name": "amount",
                    "type": "uint256"
                }
            ],
            "name": "transfer",
            "outputs": [
                {
                    "internalType": "bool",
                    "name": "",
                    "type": "bool"
                }
            ],
            "payable": false,
            "stateMutability": "nonpayable",
            "type": "function"
        },
        {
            "constant": true,
            "inputs": [
                {
                    "internalType": "address",
                    "name": "owner",
                    "type": "address"
                },
                {
                    "internalType": "address",
                    "name": "spender",
                    "type": "address"
                }
            ],
            "name": "allowance",
            "outputs": [
                {
                    "internalType": "uint256",
                    "name": "",
                    "type": "uint256"
                }
            ],
            "payable": false,
            "stateMutability": "view",
            "type": "function"
        },
        {
            "inputs": [
                {
                    "internalType": "string",
                    "name": "name",
                    "type": "string"
                },
                {
                    "internalType": "string",
                    "name": "symbol",
                    "type": "string"
                },
                {
                    "internalType": "uint8",
                    "name": "decimals",
                    "type": "uint8"
                },
                {
                    "internalType": "address",
                    "name": "owner",
                    "type": "address"
                }
            ],
            "payable": false,
            "stateMutability": "nonpayable",
            "type": "constructor"
        },
        {
            "anonymous": false,
            "inputs": [
                {
                    "indexed": true,
                    "internalType": "address",
                    "name": "from",
                    "type": "address"
                },
                {
                    "indexed": true,
                    "internalType": "address",
                    "name": "to",
                    "type": "address"
                },
                {
                    "indexed": false,
                    "internalType": "uint256",
                    "name": "value",
                    "type": "uint256"
                }
            ],
            "name": "Transfer",
            "type": "event"
        },
        {
            "anonymous": false,
            "inputs": [
                {
                    "indexed": true,
                    "internalType": "address",
                    "name": "owner",
                    "type": "address"
                },
                {
                    "indexed": true,
                    "internalType": "address",
                    "name": "spender",
                    "type": "address"
                },
                {
                    "indexed": false,
                    "internalType": "uint256",
                    "name": "value",
                    "type": "uint256"
                }
            ],
            "name": "Approval",
            "type": "event"
        },
        {
            "constant": false,
            "inputs": [
                {
                    "internalType": "address",
                    "name": "account",
                    "type": "address"
                },
                {
                    "internalType": "uint256",
                    "name": "amount",
                    "type": "uint256"
                }
            ],
            "name": "mint",
            "outputs": [],
            "payable": false,
            "stateMutability": "nonpayable",
            "type": "function"
        },
        {
            "constant": false,
            "inputs": [
                {
                    "internalType": "address",
                    "name": "account",
                    "type": "address"
                },
                {
                    "internalType": "uint256",
                    "name": "amount",
                    "type": "uint256"
                }
            ],
            "name": "burn",
            "outputs": [],
            "payable": false,
            "stateMutability": "nonpayable",
            "type": "function"
        }
    ],
    "bytecode": "0x60806040523480156200001157600080fd5b50604051620010c4380380620010c48339810160408190526200003491620001ca565b83838382600390805190602001906200004f929190620000a9565b50815162000065906004906020850190620000a9565b50600580546001600160a01b0390951661010002610100600160a81b031960ff90931660ff1990961695909517919091169390931790925550620003229350505050565b828054600181600116156101000203166002900490600052602060002090601f016020900481019282601f10620000ec57805160ff19168380011785556200011c565b828001600101855582156200011c579182015b828111156200011c578251825591602001919060010190620000ff565b506200012a9291506200012e565b5090565b6200014b91905b808211156200012a576000815560010162000135565b90565b80516200015b81620002fd565b92915050565b600082601f8301126200017357600080fd5b81516200018a62000184826200028a565b62000263565b91508082526020830160208301858383011115620001a757600080fd5b620001b4838284620002ca565b50505092915050565b80516200015b8162000317565b60008060008060808587031215620001e157600080fd5b84516001600160401b03811115620001f857600080fd5b620002068782880162000161565b94505060208501516001600160401b038111156200022357600080fd5b620002318782880162000161565b93505060406200024487828801620001bd565b925050606062000257878288016200014e565b91505092959194509250565b6040518181016001600160401b03811182821017156200028257600080fd5b604052919050565b60006001600160401b03821115620002a157600080fd5b506020601f91909101601f19160190565b60006001600160a01b0382166200015b565b60ff1690565b60005b83811015620002e7578181015183820152602001620002cd565b83811115620002f7576000848401525b50505050565b6200030881620002b2565b81146200031457600080fd5b50565b6200030881620002c4565b610d9280620003326000396000f3fe608060405234801561001057600080fd5b50600436106100ea5760003560e01c806340c10f191161008c5780639dc29fac116100665780639dc29fac146101c2578063a457c2d7146101d5578063a9059cbb146101e8578063dd62ed3e146101fb576100ea565b806340c10f191461019257806370a08231146101a757806395d89b41146101ba576100ea565b806318160ddd116100c857806318160ddd1461014257806323b872dd14610157578063313ce5671461016a578063395093511461017f576100ea565b806306fdde03146100ef578063095ea7b31461010d578063105881541461012d575b600080fd5b6100f761020e565b6040516101049190610c06565b60405180910390f35b61012061011b36600461091b565b6102a4565b6040516101049190610bf8565b6101356102bb565b6040516101049190610bea565b61014a6102cf565b6040516101049190610ca7565b6101206101653660046108ce565b6102d5565b61017261032c565b6040516101049190610cb5565b61012061018d36600461091b565b610335565b6101a56101a036600461091b565b610371565b005b61014a6101b536600461086e565b6103b9565b6100f76103d4565b6101a56101d036600461091b565b610435565b6101206101e336600461091b565b61046f565b6101206101f636600461091b565b6104ab565b61014a610209366004610894565b6104b8565b60038054604080516020601f600260001961010060018816150201909516949094049384018190048102820181019092528281526060939092909183018282801561029a5780601f1061026f5761010080835404028352916020019161029a565b820191906000526020600020905b81548152906001019060200180831161027d57829003601f168201915b5050505050905090565b60006102b13384846104e3565b5060015b92915050565b60055461010090046001600160a01b031681565b60025490565b60006102e2848484610597565b6001600160a01b03841660009081526001602090815260408083203380855292529091205461032291869161031d908663ffffffff61069316565b6104e3565b5060019392505050565b60055460ff1690565b3360008181526001602090815260408083206001600160a01b038716845290915281205490916102b191859061031d908663ffffffff6106bb16565b60055461010090046001600160a01b03163381146103aa5760405162461bcd60e51b81526004016103a190610c57565b60405180910390fd5b6103b483836106e7565b505050565b6001600160a01b031660009081526020819052604090205490565b60048054604080516020601f600260001961010060018816150201909516949094049384018190048102820181019092528281526060939092909183018282801561029a5780601f1061026f5761010080835404028352916020019161029a565b60055461010090046001600160a01b03163381146104655760405162461bcd60e51b81526004016103a190610c57565b6103b483836107a7565b3360008181526001602090815260408083206001600160a01b038716845290915281205490916102b191859061031d908663ffffffff61069316565b60006102b1338484610597565b6001600160a01b03918216600090815260016020908152604080832093909416825291909152205490565b6001600160a01b0383166105095760405162461bcd60e51b81526004016103a190610c87565b6001600160a01b03821661052f5760405162461bcd60e51b81526004016103a190610c27565b6001600160a01b0380841660008181526001602090815260408083209487168084529490915290819020849055517f8c5be1e5ebec7d5bd14f71427d1e84f3dd0314c0f7b2291e5b200ac8c7c3b9259061058a908590610ca7565b60405180910390a3505050565b6001600160a01b0383166105bd5760405162461bcd60e51b81526004016103a190610c77565b6001600160a01b0382166105e35760405162461bcd60e51b81526004016103a190610c17565b6001600160a01b03831660009081526020819052604090205461060c908263ffffffff61069316565b6001600160a01b038085166000908152602081905260408082209390935590841681522054610641908263ffffffff6106bb16565b6001600160a01b0380841660008181526020819052604090819020939093559151908516907fddf252ad1be2c89b69c2b068fc378daa952ba7f163c4a11628f55a4df523b3ef9061058a908590610ca7565b6000828211156106b55760405162461bcd60e51b81526004016103a190610c47565b50900390565b6000828201838110156106e05760405162461bcd60e51b81526004016103a190610c37565b9392505050565b6001600160a01b03821661070d5760405162461bcd60e51b81526004016103a190610c97565b600254610720908263ffffffff6106bb16565b6002556001600160a01b03821660009081526020819052604090205461074c908263ffffffff6106bb16565b6001600160a01b0383166000818152602081905260408082209390935591519091907fddf252ad1be2c89b69c2b068fc378daa952ba7f163c4a11628f55a4df523b3ef9061079b908590610ca7565b60405180910390a35050565b6001600160a01b0382166107cd5760405162461bcd60e51b81526004016103a190610c67565b6002546107e0908263ffffffff61069316565b6002556001600160a01b03821660009081526020819052604090205461080c908263ffffffff61069316565b6001600160a01b0383166000818152602081905260408082209390935591517fddf252ad1be2c89b69c2b068fc378daa952ba7f163c4a11628f55a4df523b3ef9061079b908590610ca7565b80356102b581610d2f565b80356102b581610d46565b60006020828403121561088057600080fd5b600061088c8484610858565b949350505050565b600080604083850312156108a757600080fd5b60006108b38585610858565b92505060206108c485828601610858565b9150509250929050565b6000806000606084860312156108e357600080fd5b60006108ef8686610858565b935050602061090086828701610858565b925050604061091186828701610863565b9150509250925092565b6000806040838503121561092e57600080fd5b600061093a8585610858565b92505060206108c485828601610863565b61095481610cd0565b82525050565b61095481610cdb565b600061096e82610cc3565b6109788185610cc7565b9350610988818560208601610cf5565b61099181610d25565b9093019392505050565b60006109a8602383610cc7565b7f45524332303a207472616e7366657220746f20746865207a65726f206164647281526265737360e81b602082015260400192915050565b60006109ed602283610cc7565b7f45524332303a20617070726f766520746f20746865207a65726f206164647265815261737360f01b602082015260400192915050565b6000610a31601b83610cc7565b7f536166654d6174683a206164646974696f6e206f766572666c6f770000000000815260200192915050565b6000610a6a601e83610cc7565b7f536166654d6174683a207375627472616374696f6e206f766572666c6f770000815260200192915050565b6000610aa3601e83610cc7565b7f43616c6c6572206164647265737320697320756e617574686f72697a65640000815260200192915050565b6000610adc602183610cc7565b7f45524332303a206275726e2066726f6d20746865207a65726f206164647265738152607360f81b602082015260400192915050565b6000610b1f602583610cc7565b7f45524332303a207472616e736665722066726f6d20746865207a65726f206164815264647265737360d81b602082015260400192915050565b6000610b66602483610cc7565b7f45524332303a20617070726f76652066726f6d20746865207a65726f206164648152637265737360e01b602082015260400192915050565b6000610bac601f83610cc7565b7f45524332303a206d696e7420746f20746865207a65726f206164647265737300815260200192915050565b61095481610cec565b61095481610cef565b602081016102b5828461094b565b602081016102b5828461095a565b602080825281016106e08184610963565b602080825281016102b58161099b565b602080825281016102b5816109e0565b602080825281016102b581610a24565b602080825281016102b581610a5d565b602080825281016102b581610a96565b602080825281016102b581610acf565b602080825281016102b581610b12565b602080825281016102b581610b59565b602080825281016102b581610b9f565b602081016102b58284610bd8565b602081016102b58284610be1565b5190565b90815260200190565b60006102b582610ce0565b151590565b6001600160a01b031690565b90565b60ff1690565b60005b83811015610d10578181015183820152602001610cf8565b83811115610d1f576000848401525b50505050565b601f01601f191690565b610d3881610cd0565b8114610d4357600080fd5b50565b610d3881610cec56fea365627a7a72315820e434755035423bd94c6f8c76c1c672b058a1853ed36d862a96aae2ba4e261e606c6578706572696d656e74616cf564736f6c634300050b0040",
    "source": "pragma solidity 0.5.11;\npragma experimental ABIEncoderV2;\n\nimport \"../../src/utils/OnlyFromAddress.sol\";\nimport \"./interfaces/IQToken.sol\";\nimport \"openzeppelin-solidity/contracts/token/ERC20/ERC20.sol\";\nimport \"openzeppelin-solidity/contracts/token/ERC20/ERC20Detailed.sol\";\n\ncontract QToken is IQToken, ERC20, ERC20Detailed, OnlyFromAddress {\n\n    address public quasarContract;\n\n    constructor(string memory name, string memory symbol, uint8 decimals, address owner) public ERC20Detailed(name, symbol, decimals) {\n        quasarContract = owner;\n    }\n\n    /**\n     * @dev Mint tokens for the address\n     * @param account the address\n     * @param amount the number of tokens to mint\n    */\n    function mint(address account, uint256 amount) external onlyFrom(quasarContract) {\n        _mint(account, amount);\n    }\n\n    /**\n     * @dev Burn specified tokens from the address\n     * @param account the address\n     * @param amount the number of tokens to burn\n    */\n    function burn(address account, uint256 amount) external onlyFrom(quasarContract) {\n        _burn(account, amount);\n    }\n}\n",
    "sourcePath": "/Users/souradeep/Downloads/plasma-contracts/plasma_framework/contracts/poc/fast_exits/QToken.sol",
    "compiler": {
        "name": "solc",
        "version": "0.5.11+commit.c082d0b4.Emscripten.clang"
    },
    "schemaVersion": "3.2.0",
    "updatedAt": "2021-03-15T18:46:53.566Z",
    "devdoc": {
        "methods": {
            "allowance(address,address)": {
                "details": "See `IERC20.allowance`."
            },
            "approve(address,uint256)": {
                "details": "See `IERC20.approve`.     * Requirements:     * - `spender` cannot be the zero address."
            },
            "balanceOf(address)": {
                "details": "See `IERC20.balanceOf`."
            },
            "burn(address,uint256)": {
                "details": "Burn specified tokens from the address",
                "params": {
                    "account": "the address",
                    "amount": "the number of tokens to burn"
                }
            },
            "decimals()": {
                "details": "Returns the number of decimals used to get its user representation. For example, if `decimals` equals `2`, a balance of `505` tokens should be displayed to a user as `5,05` (`505 / 10 ** 2`).     * Tokens usually opt for a value of 18, imitating the relationship between Ether and Wei.     * > Note that this information is only used for _display_ purposes: it in no way affects any of the arithmetic of the contract, including `IERC20.balanceOf` and `IERC20.transfer`."
            },
            "decreaseAllowance(address,uint256)": {
                "details": "Atomically decreases the allowance granted to `spender` by the caller.     * This is an alternative to `approve` that can be used as a mitigation for problems described in `IERC20.approve`.     * Emits an `Approval` event indicating the updated allowance.     * Requirements:     * - `spender` cannot be the zero address. - `spender` must have allowance for the caller of at least `subtractedValue`."
            },
            "increaseAllowance(address,uint256)": {
                "details": "Atomically increases the allowance granted to `spender` by the caller.     * This is an alternative to `approve` that can be used as a mitigation for problems described in `IERC20.approve`.     * Emits an `Approval` event indicating the updated allowance.     * Requirements:     * - `spender` cannot be the zero address."
            },
            "mint(address,uint256)": {
                "details": "Mint tokens for the address",
                "params": {
                    "account": "the address",
                    "amount": "the number of tokens to mint"
                }
            },
            "name()": {
                "details": "Returns the name of the token."
            },
            "symbol()": {
                "details": "Returns the symbol of the token, usually a shorter version of the name."
            },
            "totalSupply()": {
                "details": "See `IERC20.totalSupply`."
            },
            "transfer(address,uint256)": {
                "details": "See `IERC20.transfer`.     * Requirements:     * - `recipient` cannot be the zero address. - the caller must have a balance of at least `amount`."
            },
            "transferFrom(address,address,uint256)": {
                "details": "See `IERC20.transferFrom`.     * Emits an `Approval` event indicating the updated allowance. This is not required by the EIP. See the note at the beginning of `ERC20`;     * Requirements: - `sender` and `recipient` cannot be the zero address. - `sender` must have a balance of at least `value`. - the caller must have allowance for `sender`'s tokens of at least `amount`."
            }
        }
    },
    "userdoc": {
        "methods": {}
    }
}