{
    "contractName": "QuasarPool",
    "abi": [
        {
            "constant": true,
            "inputs": [
                {
                    "internalType": "address",
                    "name": "",
                    "type": "address"
                }
            ],
            "name": "tokenData",
            "outputs": [
                {
                    "internalType": "address",
                    "name": "qTokenAddress",
                    "type": "address"
                },
                {
                    "internalType": "uint256",
                    "name": "exchangeRate",
                    "type": "uint256"
                },
                {
                    "internalType": "uint256",
                    "name": "owedAmount",
                    "type": "uint256"
                },
                {
                    "internalType": "uint256",
                    "name": "poolSupply",
                    "type": "uint256"
                },
                {
                    "internalType": "uint256",
                    "name": "quasarFee",
                    "type": "uint256"
                }
            ],
            "payable": false,
            "stateMutability": "view",
            "type": "function"
        },
        {
            "constant": true,
            "inputs": [],
            "name": "quasarMaintainer",
            "outputs": [
                {
                    "internalType": "address",
                    "name": "",
                    "type": "address"
                }
            ],
            "payable": false,
            "stateMutability": "view",
            "type": "function"
        },
        {
            "constant": true,
            "inputs": [
                {
                    "internalType": "address",
                    "name": "",
                    "type": "address"
                }
            ],
            "name": "tokenUsableCapacity",
            "outputs": [
                {
                    "internalType": "uint256",
                    "name": "",
                    "type": "uint256"
                }
            ],
            "payable": false,
            "stateMutability": "view",
            "type": "function"
        },
        {
            "anonymous": false,
            "inputs": [
                {
                    "indexed": false,
                    "internalType": "address",
                    "name": "token",
                    "type": "address"
                },
                {
                    "indexed": false,
                    "internalType": "uint256",
                    "name": "balance",
                    "type": "uint256"
                }
            ],
            "name": "QuasarTotalCapacityUpdated",
            "type": "event"
        },
        {
            "constant": false,
            "inputs": [],
            "name": "addEthCapacity",
            "outputs": [],
            "payable": true,
            "stateMutability": "payable",
            "type": "function"
        },
        {
            "constant": false,
            "inputs": [
                {
                    "internalType": "address",
                    "name": "token",
                    "type": "address"
                },
                {
                    "internalType": "uint256",
                    "name": "amount",
                    "type": "uint256"
                }
            ],
            "name": "addTokenCapacity",
            "outputs": [],
            "payable": false,
            "stateMutability": "nonpayable",
            "type": "function"
        },
        {
            "constant": false,
            "inputs": [
                {
                    "internalType": "address",
                    "name": "token",
                    "type": "address"
                },
                {
                    "internalType": "uint256",
                    "name": "amount",
                    "type": "uint256"
                }
            ],
            "name": "withdrawFunds",
            "outputs": [],
            "payable": false,
            "stateMutability": "nonpayable",
            "type": "function"
        },
        {
            "constant": false,
            "inputs": [
                {
                    "internalType": "address",
                    "name": "token",
                    "type": "address"
                },
                {
                    "internalType": "address",
                    "name": "qTokenContract",
                    "type": "address"
                },
                {
                    "internalType": "uint256",
                    "name": "quasarFee",
                    "type": "uint256"
                }
            ],
            "name": "registerQToken",
            "outputs": [],
            "payable": false,
            "stateMutability": "nonpayable",
            "type": "function"
        },
        {
            "constant": false,
            "inputs": [
                {
                    "internalType": "address",
                    "name": "token",
                    "type": "address"
                },
                {
                    "internalType": "uint256",
                    "name": "amount",
                    "type": "uint256"
                }
            ],
            "name": "repayOwedToken",
            "outputs": [],
            "payable": true,
            "stateMutability": "payable",
            "type": "function"
        }
    ],
    "bytecode": "0x608060405234801561001057600080fd5b5061130e806100206000396000f3fe60806040526004361061007b5760003560e01c80637cc8448e1161004e5780637cc8448e146101115780639069f192146101195780639132ccb214610139578063c1075329146101665761007b565b80630d4bf0701461008057806327e45c2c146100955780633c2568a9146100cf578063417a9726146100ef575b600080fd5b61009361008e366004610c58565b610186565b005b3480156100a157600080fd5b506100b56100b0366004610bed565b61023a565b6040516100c695949392919061110a565b60405180910390f35b3480156100db57600080fd5b506100936100ea366004610c58565b610274565b3480156100fb57600080fd5b5061010461029d565b6040516100c6919061109d565b6100936102ac565b34801561012557600080fd5b50610093610134366004610c0b565b6102b9565b34801561014557600080fd5b50610159610154366004610bed565b6103a4565b6040516100c69190611226565b34801561017257600080fd5b50610093610181366004610c58565b6103b6565b6001600160a01b03821661019b5750346101b6565b6101b66001600160a01b03831633308463ffffffff61064316565b6001600160a01b0382166000908152600260205260409020546101df908263ffffffff6106a416565b6001600160a01b038316600090815260026020818152604080842094909455600190529190200154610217908263ffffffff6106d216565b6001600160a01b0390921660009081526001602052604090206002019190915550565b6001602081905260009182526040909120805491810154600282015460038301546004909301546001600160a01b03909416939192909185565b61028f6001600160a01b03831633308463ffffffff61064316565b61029982826106fa565b5050565b6000546001600160a01b031681565b6102b76000346106fa565b565b6000546001600160a01b031633146102ec5760405162461bcd60e51b81526004016102e390611186565b60405180910390fd5b6001600160a01b0383811660009081526001602052604090205416156103245760405162461bcd60e51b81526004016102e3906111e6565b6040805160a0810182526001600160a01b03938416815266071afd498d00006020808301918252600083850181815260608501828152608086019788529888168252600192839052949020925183546001600160a01b03191696169590951782555193810193909355516002830155915160038201559051600490910155565b60026020526000908152604090205481565b6001600160a01b038083166000908152600160205260408082205490516370a0823160e01b815292169182906370a08231906103f69033906004016110ab565b60206040518083038186803b15801561040e57600080fd5b505afa158015610422573d6000803e3d6000fd5b505050506040513d601f19601f820116820180604052506104469190810190610cb0565b9050808311156104685760405162461bcd60e51b81526004016102e3906111f6565b60408051602080820183526001600160a01b0387166000908152600191829052928320015481526104999085610899565b6001600160a01b0386166000908152600260205260409020549091508111156104d45760405162461bcd60e51b81526004016102e390611196565b6001600160a01b0385166000908152600260205260409020546104fd908263ffffffff6106d216565b6001600160a01b038616600090815260026020908152604080832093909355600190522060030154610535908263ffffffff6106d216565b6001600160a01b0380871660009081526001602052604090819020600301929092559051632770a7eb60e21b815290841690639dc29fac9061057d90339088906004016110b9565b600060405180830381600087803b15801561059757600080fd5b505af11580156105ab573d6000803e3d6000fd5b505050506001600160a01b0385166105cf576105ca33826108fc6108c0565b6105e9565b6105e96001600160a01b038616338363ffffffff6108ec16565b6001600160a01b038516600090815260026020526040908190205490517f295117b46583975aa628030f075db55be810827e0213ee4e1f8d02c1c7f16efd91610634918891906110fc565b60405180910390a15050505050565b60405161069e9085906323b872dd60e01b90610667908790879087906024016110d4565b60408051601f198184030181529190526020810180516001600160e01b03166001600160e01b031990931692909217909152610913565b50505050565b6000828201838110156106c95760405162461bcd60e51b81526004016102e390611156565b90505b92915050565b6000828211156106f45760405162461bcd60e51b81526004016102e390611176565b50900390565b6001600160a01b03828116600090815260016020526040902054166107315760405162461bcd60e51b81526004016102e3906111c6565b6001600160a01b03821660009081526002602052604090205461075a908263ffffffff6106a416565b6001600160a01b038316600090815260026020908152604080832093909355600190522060030154610792908263ffffffff6106a416565b6001600160a01b03831660009081526001602081815260408084206003810195909555805191820190529201548252906107cd9083906109f8565b6001600160a01b03808516600090815260016020526040908190205490516340c10f1960e01b815292935016906340c10f199061081090339085906004016110b9565b600060405180830381600087803b15801561082a57600080fd5b505af115801561083e573d6000803e3d6000fd5b5050506001600160a01b038416600090815260026020526040908190205490517f295117b46583975aa628030f075db55be810827e0213ee4e1f8d02c1c7f16efd925061088c9186916110fc565b60405180910390a1505050565b60006108a3610bae565b6108ad8484610a0c565b90506108b881610a3f565b949350505050565b60006108cd848484610a4e565b90508061069e5760405162461bcd60e51b81526004016102e3906111b6565b60405161090e90849063a9059cbb60e01b9061066790869086906024016110fc565b505050565b610925826001600160a01b0316610aba565b6109415760405162461bcd60e51b81526004016102e390611216565b60006060836001600160a01b03168360405161095d9190611086565b6000604051808303816000865af19150503d806000811461099a576040519150601f19603f3d011682016040523d82523d6000602084013e61099f565b606091505b5091509150816109c15760405162461bcd60e51b81526004016102e390611166565b80511561069e57808060200190516109dc9190810190610c92565b61069e5760405162461bcd60e51b81526004016102e390611206565b6000610a02610bae565b6108ad8484610ac0565b610a14610bae565b8251600090610a29908463ffffffff610af216565b6040805160208101909152908152949350505050565b51670de0b6b3a7640000900490565b600080846001600160a01b03168385604051610a6990611092565b600060405180830381858888f193505050503d8060008114610aa7576040519150601f19603f3d011682016040523d82523d6000602084013e610aac565b606091505b5090925050505b9392505050565b3b151590565b610ac8610bae565b6000610ae2670de0b6b3a76400008563ffffffff610af216565b90506108b8818460000151610b2c565b600082610b01575060006106cc565b82820282848281610b0e57fe5b04146106c95760405162461bcd60e51b81526004016102e3906111d6565b610b34610bae565b6000610b4e84670de0b6b3a764000063ffffffff610af216565b90506000610b62828563ffffffff610b7916565b604080516020810190915290815295945050505050565b6000808211610b9a5760405162461bcd60e51b81526004016102e3906111a6565b6000828481610ba557fe5b04949350505050565b6040518060200160405280600081525090565b80356106cc816112a2565b80516106cc816112b9565b80356106cc816112c2565b80516106cc816112c2565b600060208284031215610bff57600080fd5b60006108b88484610bc1565b600080600060608486031215610c2057600080fd5b6000610c2c8686610bc1565b9350506020610c3d86828701610bc1565b9250506040610c4e86828701610bd7565b9150509250925092565b60008060408385031215610c6b57600080fd5b6000610c778585610bc1565b9250506020610c8885828601610bd7565b9150509250929050565b600060208284031215610ca457600080fd5b60006108b88484610bcc565b600060208284031215610cc257600080fd5b60006108b88484610be2565b610cd781611265565b82525050565b610cd781611246565b6000610cf182611234565b610cfb8185611238565b9350610d0b818560208601611276565b9290920192915050565b6000610d22601b8361123d565b7f536166654d6174683a206164646974696f6e206f766572666c6f770000000000815260200192915050565b6000610d5b60208361123d565b7f5361666545524332303a206c6f772d6c6576656c2063616c6c206661696c6564815260200192915050565b6000610d94601e8361123d565b7f536166654d6174683a207375627472616374696f6e206f766572666c6f770000815260200192915050565b6000610dcd60318361123d565b7f4f6e6c792074686520517561736172204d61696e7461696e65722063616e20698152701b9d9bdad9481d1a1a5cc81b595d1a1bd9607a1b602082015260400192915050565b6000610e20602b8361123d565b7f416d6f756e742073686f756c64206265206c6f776572207468616e20636c616981526a6d61626c652066756e647360a81b602082015260400192915050565b6000610e6d601a8361123d565b7f536166654d6174683a206469766973696f6e206279207a65726f000000000000815260200192915050565b6000610ea660278361123d565b7f536166654574685472616e736665723a206661696c656420746f207472616e738152660cccae4408aa8960cb1b602082015260400192915050565b6000610eef60268361123d565b7f51546f6b656e206973206e6f74207265676973746572656420666f7220746865815265103a37b5b2b760d11b602082015260400192915050565b6000610f3760218361123d565b7f536166654d6174683a206d756c7469706c69636174696f6e206f766572666c6f8152607760f81b602082015260400192915050565b60006106cc600083611238565b6000610f8760238361123d565b7f51546f6b656e20666f722074686520746f6b656e20616c72656164792065786981526273747360e81b602082015260400192915050565b6000610fcc60198361123d565b7f4e6f7420656e6f7567682071546f6b656e2042616c616e636500000000000000815260200192915050565b6000611005602a8361123d565b7f5361666545524332303a204552433230206f7065726174696f6e20646964206e8152691bdd081cdd58d8d9595960b21b602082015260400192915050565b6000611051601f8361123d565b7f5361666545524332303a2063616c6c20746f206e6f6e2d636f6e747261637400815260200192915050565b610cd781611262565b6000610ab38284610ce6565b60006106cc82610f6d565b602081016106cc8284610cdd565b602081016106cc8284610cce565b604081016110c78285610cce565b610ab3602083018461107d565b606081016110e28286610cdd565b6110ef6020830185610cdd565b6108b8604083018461107d565b604081016110c78285610cdd565b60a081016111188288610cdd565b611125602083018761107d565b611132604083018661107d565b61113f606083018561107d565b61114c608083018461107d565b9695505050505050565b602080825281016106cc81610d15565b602080825281016106cc81610d4e565b602080825281016106cc81610d87565b602080825281016106cc81610dc0565b602080825281016106cc81610e13565b602080825281016106cc81610e60565b602080825281016106cc81610e99565b602080825281016106cc81610ee2565b602080825281016106cc81610f2a565b602080825281016106cc81610f7a565b602080825281016106cc81610fbf565b602080825281016106cc81610ff8565b602080825281016106cc81611044565b602081016106cc828461107d565b5190565b919050565b90815260200190565b60006106cc82611256565b151590565b6001600160a01b031690565b90565b60006106cc8260006106cc82611246565b60005b83811015611291578181015183820152602001611279565b8381111561069e5750506000910152565b6112ab81611246565b81146112b657600080fd5b50565b6112ab81611251565b6112ab8161126256fea365627a7a7231582033edb36afccbdb9d2f482c3a101b3803c4a5dc76dd8518233ceb4d117bd2b6956c6578706572696d656e74616cf564736f6c634300050b0040",
    "source": "pragma solidity 0.5.11;\npragma experimental ABIEncoderV2;\n\nimport \"../../src/utils/SafeEthTransfer.sol\";\nimport \"./utils/Exponential.sol\";\nimport \"./interfaces/IQToken.sol\";\nimport \"openzeppelin-solidity/contracts/math/SafeMath.sol\";\nimport \"openzeppelin-solidity/contracts/token/ERC20/IERC20.sol\";\nimport \"openzeppelin-solidity/contracts/token/ERC20/SafeERC20.sol\";\n\ncontract QuasarPool is Exponential {\n    using SafeMath for uint256;\n    using SafeERC20 for IERC20;\n\n    struct Token {\n        address qTokenAddress;\n        uint256 exchangeRate;\n        uint256 owedAmount;\n        uint256 poolSupply;\n        uint256 quasarFee;\n    }\n\n    address public quasarMaintainer;\n    uint256 constant internal SAFE_GAS_STIPEND = 2300;\n    uint256 constant private INITIAL_EXCHANGE_RATE_SCALED = 2e15;\n\n    modifier onlyQuasarMaintainer() {\n        require(msg.sender == quasarMaintainer, \"Only the Quasar Maintainer can invoke this method\");\n        _;\n    }\n    \n    mapping (address => Token) public tokenData;\n    mapping (address => uint256) public tokenUsableCapacity;\n    event QuasarTotalCapacityUpdated(address token, uint256 balance);\n\n    /**\n     * Verify QToken contract before supplying\n     * @dev Add Eth Liquid funds to the quasar\n    */\n    function addEthCapacity() public payable {\n        mintQTokens(address(0), msg.value);\n    }\n\n    /**\n     * Verify QToken contract before supplying\n     * @dev Add ERC20 Liquid funds to the quasar\n     * @param token the token\n     * @param amount value to supply\n    */\n    function addTokenCapacity(address token, uint256 amount) public {\n        IERC20(token).safeTransferFrom(msg.sender, address(this), amount);\n\n        mintQTokens(token, amount);\n    }\n\n    /**\n     * @dev Internal function, determine and mint tokens for supplier\n     * @param token the token\n     * @param amount value to supply\n    */\n    function mintQTokens(address token, uint256 amount) private {\n        require(tokenData[token].qTokenAddress != address(0), \"QToken is not registered for the token\");\n\n        tokenUsableCapacity[token] = tokenUsableCapacity[token].add(amount);\n        tokenData[token].poolSupply = tokenData[token].poolSupply.add(amount);\n\n        // derive qTokens to mint\n        uint256 qTokenMintAmount = Exponential.divScalarByExpTruncate(amount, Exp({mantissa: tokenData[token].exchangeRate}));\n        IQToken(tokenData[token].qTokenAddress).mint(msg.sender, qTokenMintAmount);\n\n        emit QuasarTotalCapacityUpdated(token, tokenUsableCapacity[token]);\n    }\n\n    /**\n     * @dev Withdraw funds from the contract\n     * @param token the token\n     * @param amount amount (in number of qTokens) to withdraw\n    */\n    function withdrawFunds(address token, uint256 amount) public {\n        address qToken = tokenData[token].qTokenAddress;\n        uint256 qTokenBalance = IERC20(qToken).balanceOf(msg.sender);\n        require(amount <= qTokenBalance, \"Not enough qToken Balance\");\n\n        // derive amount from number of qTokens\n        uint256 tokenWithdrawable = Exponential.mulScalarTruncate(Exp({mantissa: tokenData[token].exchangeRate}), amount);\n        require(tokenWithdrawable <= tokenUsableCapacity[token], \"Amount should be lower than claimable funds\");\n\n        tokenUsableCapacity[token] = tokenUsableCapacity[token].sub(tokenWithdrawable);\n        tokenData[token].poolSupply = tokenData[token].poolSupply.sub(tokenWithdrawable);\n\n        // burn qTokens from supply\n        IQToken(qToken).burn(msg.sender, amount);\n\n        if (token == address(0)) {\n            SafeEthTransfer.transferRevertOnError(msg.sender, tokenWithdrawable, SAFE_GAS_STIPEND);\n        } else {\n            IERC20(token).safeTransfer(msg.sender, tokenWithdrawable);\n        }\n\n        emit QuasarTotalCapacityUpdated(token, tokenUsableCapacity[token]);\n    }\n\n    /**\n     * Higher decimal for erc20 preffered\n     * @dev Register a token to be allowed, deploy qToken first\n     * @param token the token\n     * @param qTokenContract the address of the qToken contract\n     * @param quasarFee amount (in token's denomination) to be used as a fee\n    */\n    function registerQToken(address token, address qTokenContract, uint256 quasarFee) public onlyQuasarMaintainer() {\n        require(tokenData[token].qTokenAddress == address(0), \"QToken for the token already exists\");\n        tokenData[token] = Token(qTokenContract, INITIAL_EXCHANGE_RATE_SCALED, 0, 0, quasarFee);\n    }\n\n    /**\n     * @dev Repay owed funds to the pool\n     * @param token the token\n     * @param amount amount to repay\n    */\n    function repayOwedToken(address token, uint256 amount) public payable {\n        if (token == address(0)) {\n            amount = msg.value;\n        } else {\n            IERC20(token).safeTransferFrom(msg.sender, address(this), amount);\n        }\n\n        tokenUsableCapacity[token] = tokenUsableCapacity[token].add(amount);\n        tokenData[token].owedAmount = tokenData[token].owedAmount.sub(amount);   \n    }\n}\n",
    "sourcePath": "/Users/souradeep/Downloads/plasma-contracts/plasma_framework/contracts/poc/fast_exits/QuasarPool.sol",
    "compiler": {
        "name": "solc",
        "version": "0.5.11+commit.c082d0b4.Emscripten.clang"
    },
    "schemaVersion": "3.2.0",
    "updatedAt": "2021-03-15T18:46:53.579Z",
    "devdoc": {
        "methods": {
            "addEthCapacity()": {
                "details": "Add Eth Liquid funds to the quasar"
            },
            "addTokenCapacity(address,uint256)": {
                "details": "Add ERC20 Liquid funds to the quasar",
                "params": {
                    "amount": "value to supply",
                    "token": "the token"
                }
            },
            "registerQToken(address,address,uint256)": {
                "details": "Register a token to be allowed, deploy qToken first",
                "params": {
                    "qTokenContract": "the address of the qToken contract",
                    "quasarFee": "amount (in token's denomination) to be used as a fee",
                    "token": "the token"
                }
            },
            "repayOwedToken(address,uint256)": {
                "details": "Repay owed funds to the pool",
                "params": {
                    "amount": "amount to repay",
                    "token": "the token"
                }
            },
            "withdrawFunds(address,uint256)": {
                "details": "Withdraw funds from the contract",
                "params": {
                    "amount": "amount (in number of qTokens) to withdraw",
                    "token": "the token"
                }
            }
        }
    },
    "userdoc": {
        "methods": {
            "addEthCapacity()": {
                "notice": "Verify QToken contract before supplying"
            },
            "addTokenCapacity(address,uint256)": {
                "notice": "Verify QToken contract before supplying"
            },
            "registerQToken(address,address,uint256)": {
                "notice": "Higher decimal for erc20 preffered"
            }
        }
    }
}